{
  "_format": "hh-sol-artifact-1",
  "contractName": "Marketplace",
  "sourceName": "src/backend/contracts/Marketplace.sol",
  "abi": [
    {
      "inputs": [
        {
          "internalType": "uint256",
          "name": "_feePercent",
          "type": "uint256"
        }
      ],
      "stateMutability": "nonpayable",
      "type": "constructor"
    },
    {
      "anonymous": false,
      "inputs": [
        {
          "indexed": false,
          "internalType": "uint256",
          "name": "itemId",
          "type": "uint256"
        },
        {
          "indexed": true,
          "internalType": "address",
          "name": "nft",
          "type": "address"
        },
        {
          "indexed": false,
          "internalType": "uint256",
          "name": "tokenId",
          "type": "uint256"
        },
        {
          "indexed": false,
          "internalType": "uint256",
          "name": "price",
          "type": "uint256"
        },
        {
          "indexed": true,
          "internalType": "address",
          "name": "seller",
          "type": "address"
        },
        {
          "indexed": true,
          "internalType": "address",
          "name": "buyer",
          "type": "address"
        }
      ],
      "name": "Bought",
      "type": "event"
    },
    {
      "anonymous": false,
      "inputs": [
        {
          "indexed": false,
          "internalType": "uint256",
          "name": "itemId",
          "type": "uint256"
        },
        {
          "indexed": true,
          "internalType": "address",
          "name": "nft",
          "type": "address"
        },
        {
          "indexed": false,
          "internalType": "uint256",
          "name": "tokenId",
          "type": "uint256"
        },
        {
          "indexed": false,
          "internalType": "uint256",
          "name": "price",
          "type": "uint256"
        },
        {
          "indexed": true,
          "internalType": "address",
          "name": "seller",
          "type": "address"
        }
      ],
      "name": "Offered",
      "type": "event"
    },
    {
      "anonymous": false,
      "inputs": [
        {
          "indexed": true,
          "internalType": "uint256",
          "name": "itemId",
          "type": "uint256"
        },
        {
          "indexed": true,
          "internalType": "address",
          "name": "tokenAddress",
          "type": "address"
        },
        {
          "indexed": true,
          "internalType": "uint256",
          "name": "tokenId",
          "type": "uint256"
        },
        {
          "indexed": false,
          "internalType": "address",
          "name": "seller",
          "type": "address"
        }
      ],
      "name": "RemovedFromSale",
      "type": "event"
    },
    {
      "inputs": [],
      "name": "feeAccount",
      "outputs": [
        {
          "internalType": "address payable",
          "name": "",
          "type": "address"
        }
      ],
      "stateMutability": "view",
      "type": "function"
    },
    {
      "inputs": [],
      "name": "feePercent",
      "outputs": [
        {
          "internalType": "uint256",
          "name": "",
          "type": "uint256"
        }
      ],
      "stateMutability": "view",
      "type": "function"
    },
    {
      "inputs": [
        {
          "internalType": "uint256",
          "name": "_itemId",
          "type": "uint256"
        }
      ],
      "name": "getTotalPrice",
      "outputs": [
        {
          "internalType": "uint256",
          "name": "",
          "type": "uint256"
        }
      ],
      "stateMutability": "view",
      "type": "function"
    },
    {
      "inputs": [],
      "name": "itemCount",
      "outputs": [
        {
          "internalType": "uint256",
          "name": "",
          "type": "uint256"
        }
      ],
      "stateMutability": "view",
      "type": "function"
    },
    {
      "inputs": [
        {
          "internalType": "uint256",
          "name": "",
          "type": "uint256"
        }
      ],
      "name": "items",
      "outputs": [
        {
          "internalType": "uint256",
          "name": "itemId",
          "type": "uint256"
        },
        {
          "internalType": "contract IERC721",
          "name": "nft",
          "type": "address"
        },
        {
          "internalType": "uint256",
          "name": "tokenId",
          "type": "uint256"
        },
        {
          "internalType": "uint256",
          "name": "price",
          "type": "uint256"
        },
        {
          "internalType": "address payable",
          "name": "seller",
          "type": "address"
        },
        {
          "internalType": "bool",
          "name": "sold",
          "type": "bool"
        }
      ],
      "stateMutability": "view",
      "type": "function"
    },
    {
      "inputs": [
        {
          "internalType": "contract IERC721",
          "name": "_nft",
          "type": "address"
        },
        {
          "internalType": "uint256",
          "name": "_tokenId",
          "type": "uint256"
        },
        {
          "internalType": "uint256",
          "name": "_price",
          "type": "uint256"
        }
      ],
      "name": "makeItem",
      "outputs": [],
      "stateMutability": "nonpayable",
      "type": "function"
    },
    {
      "inputs": [
        {
          "internalType": "uint256",
          "name": "_itemId",
          "type": "uint256"
        }
      ],
      "name": "purchaseItem",
      "outputs": [],
      "stateMutability": "payable",
      "type": "function"
    },
    {
      "inputs": [
        {
          "internalType": "uint256",
          "name": "itemId",
          "type": "uint256"
        }
      ],
      "name": "removeFromSale",
      "outputs": [],
      "stateMutability": "nonpayable",
      "type": "function"
    }
  ],
  "bytecode": "0x60c06040523480156200001157600080fd5b506040516200166a3803806200166a83398181016040528101906200003791906200009c565b60016000819055503373ffffffffffffffffffffffffffffffffffffffff1660808173ffffffffffffffffffffffffffffffffffffffff1660601b815250508060a0818152505050620000ec565b6000815190506200009681620000d2565b92915050565b600060208284031215620000af57600080fd5b6000620000bf8482850162000085565b91505092915050565b6000819050919050565b620000dd81620000c8565b8114620000e957600080fd5b50565b60805160601c60a051611547620001236000396000818161050f01526105c00152600081816104e501526107e601526115476000f3fe60806040526004361061007b5760003560e01c8063bfb231d21161004e578063bfb231d21461012a578063ca7dd3751461016c578063d38ea5bf146101a9578063fa00afc7146101c55761007b565b80631361a3b61461008057806365e17c9d146100a95780636bfb0d01146100d45780637fd6f15c146100ff575b600080fd5b34801561008c57600080fd5b506100a760048036038101906100a29190610d36565b6101ee565b005b3480156100b557600080fd5b506100be6104e3565b6040516100cb9190610ec9565b60405180910390f35b3480156100e057600080fd5b506100e9610507565b6040516100f69190611032565b60405180910390f35b34801561010b57600080fd5b5061011461050d565b6040516101219190611032565b60405180910390f35b34801561013657600080fd5b50610151600480360381019061014c9190610d36565b610531565b6040516101639695949392919061104d565b60405180910390f35b34801561017857600080fd5b50610193600480360381019061018e9190610d36565b6105ba565b6040516101a09190611032565b60405180910390f35b6101c360048036038101906101be9190610d36565b61061d565b005b3480156101d157600080fd5b506101ec60048036038101906101e79190610ce7565b6109eb565b005b60026000541415610234576040517f08c379a000000000000000000000000000000000000000000000000000000000815260040161022b90610ff2565b60405180910390fd5b600260008190555060006002600083815260200190815260200160002090503373ffffffffffffffffffffffffffffffffffffffff168160040160009054906101000a900473ffffffffffffffffffffffffffffffffffffffff1673ffffffffffffffffffffffffffffffffffffffff16146102e5576040517f08c379a00000000000000000000000000000000000000000000000000000000081526004016102dc90610f72565b60405180910390fd5b8060040160149054906101000a900460ff1615610337576040517f08c379a000000000000000000000000000000000000000000000000000000000815260040161032e90611012565b60405180910390fd5b8060010160009054906101000a900473ffffffffffffffffffffffffffffffffffffffff1673ffffffffffffffffffffffffffffffffffffffff166323b872dd308360040160009054906101000a900473ffffffffffffffffffffffffffffffffffffffff1684600201546040518463ffffffff1660e01b81526004016103c093929190610ee4565b600060405180830381600087803b1580156103da57600080fd5b505af11580156103ee573d6000803e3d6000fd5b505050506000808260040160006101000a81548173ffffffffffffffffffffffffffffffffffffffff021916908373ffffffffffffffffffffffffffffffffffffffff1602179055506000826003018190555060018260040160146101000a81548160ff02191690831515021790555081600201548260010160009054906101000a900473ffffffffffffffffffffffffffffffffffffffff1673ffffffffffffffffffffffffffffffffffffffff16847fa07da2240c2abf1d902aa3e9ce47e20f19b45c1a1e675c397666c28fca3d0ee8336040516104ce9190610eae565b60405180910390a45050600160008190555050565b7f000000000000000000000000000000000000000000000000000000000000000081565b60015481565b7f000000000000000000000000000000000000000000000000000000000000000081565b60026020528060005260406000206000915090508060000154908060010160009054906101000a900473ffffffffffffffffffffffffffffffffffffffff16908060020154908060030154908060040160009054906101000a900473ffffffffffffffffffffffffffffffffffffffff16908060040160149054906101000a900460ff16905086565b600060647f000000000000000000000000000000000000000000000000000000000000000060646105eb91906110f6565b600260008581526020019081526020016000206003015461060c919061117d565b610616919061114c565b9050919050565b60026000541415610663576040517f08c379a000000000000000000000000000000000000000000000000000000000815260040161065a90610ff2565b60405180910390fd5b60026000819055506000610676826105ba565b905060006002600084815260200190815260200160002090506000831180156106a157506001548311155b6106e0576040517f08c379a00000000000000000000000000000000000000000000000000000000081526004016106d790610fd2565b60405180910390fd5b81341015610723576040517f08c379a000000000000000000000000000000000000000000000000000000000815260040161071a90610fb2565b60405180910390fd5b8060040160149054906101000a900460ff1615610775576040517f08c379a000000000000000000000000000000000000000000000000000000000815260040161076c90610f52565b60405180910390fd5b8060040160009054906101000a900473ffffffffffffffffffffffffffffffffffffffff1673ffffffffffffffffffffffffffffffffffffffff166108fc82600301549081150290604051600060405180830381858888f193505050501580156107e3573d6000803e3d6000fd5b507f000000000000000000000000000000000000000000000000000000000000000073ffffffffffffffffffffffffffffffffffffffff166108fc82600301548461082e91906111d7565b9081150290604051600060405180830381858888f19350505050158015610859573d6000803e3d6000fd5b5060018160040160146101000a81548160ff0219169083151502179055508060010160009054906101000a900473ffffffffffffffffffffffffffffffffffffffff1673ffffffffffffffffffffffffffffffffffffffff166323b872dd303384600201546040518463ffffffff1660e01b81526004016108dc93929190610f1b565b600060405180830381600087803b1580156108f657600080fd5b505af115801561090a573d6000803e3d6000fd5b505050503373ffffffffffffffffffffffffffffffffffffffff168160040160009054906101000a900473ffffffffffffffffffffffffffffffffffffffff1673ffffffffffffffffffffffffffffffffffffffff168260010160009054906101000a900473ffffffffffffffffffffffffffffffffffffffff1673ffffffffffffffffffffffffffffffffffffffff167f8b4c9c8a607d67b321582dd8461041b1dc2ceeca70c8b7f37f8e02095cf2e76d86856002015486600301546040516109d6939291906110ae565b60405180910390a45050600160008190555050565b60026000541415610a31576040517f08c379a0000000000000000000000000000000000000000000000000000000008152600401610a2890610ff2565b60405180910390fd5b600260008190555060008111610a7c576040517f08c379a0000000000000000000000000000000000000000000000000000000008152600401610a7390610f92565b60405180910390fd5b60016000815480929190610a8f906112d1565b91905055508273ffffffffffffffffffffffffffffffffffffffff166323b872dd3330856040518463ffffffff1660e01b8152600401610ad193929190610f1b565b600060405180830381600087803b158015610aeb57600080fd5b505af1158015610aff573d6000803e3d6000fd5b505050506040518060c0016040528060015481526020018473ffffffffffffffffffffffffffffffffffffffff1681526020018381526020018281526020013373ffffffffffffffffffffffffffffffffffffffff168152602001600015158152506002600060015481526020019081526020016000206000820151816000015560208201518160010160006101000a81548173ffffffffffffffffffffffffffffffffffffffff021916908373ffffffffffffffffffffffffffffffffffffffff160217905550604082015181600201556060820151816003015560808201518160040160006101000a81548173ffffffffffffffffffffffffffffffffffffffff021916908373ffffffffffffffffffffffffffffffffffffffff16021790555060a08201518160040160146101000a81548160ff0219169083151502179055509050503373ffffffffffffffffffffffffffffffffffffffff168373ffffffffffffffffffffffffffffffffffffffff167f655a0cf9c8db81512be9a76dc1c5ae5380b8816ce6ad659cd61b715e2999d59a6001548585604051610ca8939291906110ae565b60405180910390a36001600081905550505050565b600081359050610ccc816114e3565b92915050565b600081359050610ce1816114fa565b92915050565b600080600060608486031215610cfc57600080fd5b6000610d0a86828701610cbd565b9350506020610d1b86828701610cd2565b9250506040610d2c86828701610cd2565b9150509250925092565b600060208284031215610d4857600080fd5b6000610d5684828501610cd2565b91505092915050565b610d6881611277565b82525050565b610d778161121d565b82525050565b610d868161120b565b82525050565b610d958161122f565b82525050565b610da481611289565b82525050565b6000610db76011836110e5565b9150610dc282611378565b602082019050919050565b6000610dda602d836110e5565b9150610de5826113a1565b604082019050919050565b6000610dfd601f836110e5565b9150610e08826113f0565b602082019050919050565b6000610e206033836110e5565b9150610e2b82611419565b604082019050919050565b6000610e436012836110e5565b9150610e4e82611468565b602082019050919050565b6000610e66601f836110e5565b9150610e7182611491565b602082019050919050565b6000610e896011836110e5565b9150610e94826114ba565b602082019050919050565b610ea88161126d565b82525050565b6000602082019050610ec36000830184610d7d565b92915050565b6000602082019050610ede6000830184610d6e565b92915050565b6000606082019050610ef96000830186610d7d565b610f066020830185610d5f565b610f136040830184610e9f565b949350505050565b6000606082019050610f306000830186610d7d565b610f3d6020830185610d7d565b610f4a6040830184610e9f565b949350505050565b60006020820190508181036000830152610f6b81610daa565b9050919050565b60006020820190508181036000830152610f8b81610dcd565b9050919050565b60006020820190508181036000830152610fab81610df0565b9050919050565b60006020820190508181036000830152610fcb81610e13565b9050919050565b60006020820190508181036000830152610feb81610e36565b9050919050565b6000602082019050818103600083015261100b81610e59565b9050919050565b6000602082019050818103600083015261102b81610e7c565b9050919050565b60006020820190506110476000830184610e9f565b92915050565b600060c0820190506110626000830189610e9f565b61106f6020830188610d9b565b61107c6040830187610e9f565b6110896060830186610e9f565b6110966080830185610d6e565b6110a360a0830184610d8c565b979650505050505050565b60006060820190506110c36000830186610e9f565b6110d06020830185610e9f565b6110dd6040830184610e9f565b949350505050565b600082825260208201905092915050565b60006111018261126d565b915061110c8361126d565b9250827fffffffffffffffffffffffffffffffffffffffffffffffffffffffffffffffff038211156111415761114061131a565b5b828201905092915050565b60006111578261126d565b91506111628361126d565b92508261117257611171611349565b5b828204905092915050565b60006111888261126d565b91506111938361126d565b9250817fffffffffffffffffffffffffffffffffffffffffffffffffffffffffffffffff04831182151516156111cc576111cb61131a565b5b828202905092915050565b60006111e28261126d565b91506111ed8361126d565b925082821015611200576111ff61131a565b5b828203905092915050565b60006112168261124d565b9050919050565b60006112288261124d565b9050919050565b60008115159050919050565b60006112468261120b565b9050919050565b600073ffffffffffffffffffffffffffffffffffffffff82169050919050565b6000819050919050565b6000611282826112ad565b9050919050565b60006112948261129b565b9050919050565b60006112a68261124d565b9050919050565b60006112b8826112bf565b9050919050565b60006112ca8261124d565b9050919050565b60006112dc8261126d565b91507fffffffffffffffffffffffffffffffffffffffffffffffffffffffffffffffff82141561130f5761130e61131a565b5b600182019050919050565b7f4e487b7100000000000000000000000000000000000000000000000000000000600052601160045260246000fd5b7f4e487b7100000000000000000000000000000000000000000000000000000000600052601260045260246000fd5b7f6974656d20616c726561647920736f6c64000000000000000000000000000000600082015250565b7f4f6e6c79207468652073656c6c65722063616e2072656d6f766520746865206960008201527f74656d2066726f6d2073616c6500000000000000000000000000000000000000602082015250565b7f5072696365206d7573742062652067726561746572207468616e207a65726f00600082015250565b7f6e6f7420656e6f75676820657468657220746f20636f766572206974656d207060008201527f7269636520616e64206d61726b65742066656500000000000000000000000000602082015250565b7f6974656d20646f65736e27742065786973740000000000000000000000000000600082015250565b7f5265656e7472616e637947756172643a207265656e7472616e742063616c6c00600082015250565b7f4974656d20616c726561647920736f6c64000000000000000000000000000000600082015250565b6114ec8161123b565b81146114f757600080fd5b50565b6115038161126d565b811461150e57600080fd5b5056fea2646970667358221220d3822033391c79ec07011fbf70b8b611f5d531c8d310fa00b1b5d6c43813342064736f6c63430008040033",
  "linkReferences": {},
  "deployedLinkReferences": {}
}